{
  "contractName": "Marketplace",
  "abi": [
    {
      "inputs": [],
      "stateMutability": "nonpayable",
      "type": "constructor"
    },
    {
      "anonymous": false,
      "inputs": [
        {
          "indexed": true,
          "internalType": "address",
          "name": "account",
          "type": "address"
        },
        {
          "indexed": true,
          "internalType": "address",
          "name": "operator",
          "type": "address"
        },
        {
          "indexed": false,
          "internalType": "bool",
          "name": "approved",
          "type": "bool"
        }
      ],
      "name": "ApprovalForAll",
      "type": "event"
    },
    {
      "anonymous": false,
      "inputs": [
        {
          "indexed": true,
          "internalType": "address",
          "name": "operator",
          "type": "address"
        },
        {
          "indexed": true,
          "internalType": "address",
          "name": "from",
          "type": "address"
        },
        {
          "indexed": true,
          "internalType": "address",
          "name": "to",
          "type": "address"
        },
        {
          "indexed": false,
          "internalType": "uint256[]",
          "name": "ids",
          "type": "uint256[]"
        },
        {
          "indexed": false,
          "internalType": "uint256[]",
          "name": "values",
          "type": "uint256[]"
        }
      ],
      "name": "TransferBatch",
      "type": "event"
    },
    {
      "anonymous": false,
      "inputs": [
        {
          "indexed": true,
          "internalType": "address",
          "name": "operator",
          "type": "address"
        },
        {
          "indexed": true,
          "internalType": "address",
          "name": "from",
          "type": "address"
        },
        {
          "indexed": true,
          "internalType": "address",
          "name": "to",
          "type": "address"
        },
        {
          "indexed": false,
          "internalType": "uint256",
          "name": "id",
          "type": "uint256"
        },
        {
          "indexed": false,
          "internalType": "uint256",
          "name": "value",
          "type": "uint256"
        }
      ],
      "name": "TransferSingle",
      "type": "event"
    },
    {
      "anonymous": false,
      "inputs": [
        {
          "indexed": false,
          "internalType": "string",
          "name": "value",
          "type": "string"
        },
        {
          "indexed": true,
          "internalType": "uint256",
          "name": "id",
          "type": "uint256"
        }
      ],
      "name": "URI",
      "type": "event"
    },
    {
      "inputs": [],
      "name": "RATE",
      "outputs": [
        {
          "internalType": "uint256",
          "name": "",
          "type": "uint256"
        }
      ],
      "stateMutability": "view",
      "type": "function",
      "constant": true
    },
    {
      "inputs": [],
      "name": "_assetTokenIds",
      "outputs": [
        {
          "internalType": "uint256",
          "name": "_value",
          "type": "uint256"
        }
      ],
      "stateMutability": "view",
      "type": "function",
      "constant": true
    },
    {
      "inputs": [
        {
          "internalType": "address",
          "name": "account",
          "type": "address"
        },
        {
          "internalType": "uint256",
          "name": "id",
          "type": "uint256"
        }
      ],
      "name": "balanceOf",
      "outputs": [
        {
          "internalType": "uint256",
          "name": "",
          "type": "uint256"
        }
      ],
      "stateMutability": "view",
      "type": "function",
      "constant": true
    },
    {
      "inputs": [
        {
          "internalType": "address[]",
          "name": "accounts",
          "type": "address[]"
        },
        {
          "internalType": "uint256[]",
          "name": "ids",
          "type": "uint256[]"
        }
      ],
      "name": "balanceOfBatch",
      "outputs": [
        {
          "internalType": "uint256[]",
          "name": "",
          "type": "uint256[]"
        }
      ],
      "stateMutability": "view",
      "type": "function",
      "constant": true
    },
    {
      "inputs": [
        {
          "internalType": "address",
          "name": "account",
          "type": "address"
        },
        {
          "internalType": "address",
          "name": "operator",
          "type": "address"
        }
      ],
      "name": "isApprovedForAll",
      "outputs": [
        {
          "internalType": "bool",
          "name": "",
          "type": "bool"
        }
      ],
      "stateMutability": "view",
      "type": "function",
      "constant": true
    },
    {
      "inputs": [
        {
          "internalType": "address",
          "name": "from",
          "type": "address"
        },
        {
          "internalType": "address",
          "name": "to",
          "type": "address"
        },
        {
          "internalType": "uint256[]",
          "name": "ids",
          "type": "uint256[]"
        },
        {
          "internalType": "uint256[]",
          "name": "amounts",
          "type": "uint256[]"
        },
        {
          "internalType": "bytes",
          "name": "data",
          "type": "bytes"
        }
      ],
      "name": "safeBatchTransferFrom",
      "outputs": [],
      "stateMutability": "nonpayable",
      "type": "function"
    },
    {
      "inputs": [
        {
          "internalType": "address",
          "name": "from",
          "type": "address"
        },
        {
          "internalType": "address",
          "name": "to",
          "type": "address"
        },
        {
          "internalType": "uint256",
          "name": "id",
          "type": "uint256"
        },
        {
          "internalType": "uint256",
          "name": "amount",
          "type": "uint256"
        },
        {
          "internalType": "bytes",
          "name": "data",
          "type": "bytes"
        }
      ],
      "name": "safeTransferFrom",
      "outputs": [],
      "stateMutability": "nonpayable",
      "type": "function"
    },
    {
      "inputs": [
        {
          "internalType": "address",
          "name": "operator",
          "type": "address"
        },
        {
          "internalType": "bool",
          "name": "approved",
          "type": "bool"
        }
      ],
      "name": "setApprovalForAll",
      "outputs": [],
      "stateMutability": "nonpayable",
      "type": "function"
    },
    {
      "inputs": [
        {
          "internalType": "bytes4",
          "name": "interfaceId",
          "type": "bytes4"
        }
      ],
      "name": "supportsInterface",
      "outputs": [
        {
          "internalType": "bool",
          "name": "",
          "type": "bool"
        }
      ],
      "stateMutability": "view",
      "type": "function",
      "constant": true
    },
    {
      "inputs": [
        {
          "internalType": "uint256",
          "name": "",
          "type": "uint256"
        }
      ],
      "name": "uri",
      "outputs": [
        {
          "internalType": "string",
          "name": "",
          "type": "string"
        }
      ],
      "stateMutability": "view",
      "type": "function",
      "constant": true
    },
    {
      "inputs": [],
      "name": "registerUser",
      "outputs": [],
      "stateMutability": "nonpayable",
      "type": "function"
    },
    {
      "inputs": [
        {
          "internalType": "string",
          "name": "name",
          "type": "string"
        },
        {
          "internalType": "uint256",
          "name": "price",
          "type": "uint256"
        }
      ],
      "name": "addAsset",
      "outputs": [],
      "stateMutability": "nonpayable",
      "type": "function"
    },
    {
      "inputs": [
        {
          "internalType": "uint256",
          "name": "assetId",
          "type": "uint256"
        }
      ],
      "name": "purchaseAsset",
      "outputs": [],
      "stateMutability": "nonpayable",
      "type": "function"
    },
    {
      "inputs": [
        {
          "internalType": "uint256",
          "name": "assetId",
          "type": "uint256"
        }
      ],
      "name": "viewAsset",
      "outputs": [
        {
          "components": [
            {
              "internalType": "string",
              "name": "name",
              "type": "string"
            },
            {
              "internalType": "uint256",
              "name": "price",
              "type": "uint256"
            },
            {
              "internalType": "address",
              "name": "owner",
              "type": "address"
            },
            {
              "internalType": "address[]",
              "name": "previousOwners",
              "type": "address[]"
            },
            {
              "internalType": "bool",
              "name": "forSale",
              "type": "bool"
            }
          ],
          "internalType": "struct Marketplace.Asset",
          "name": "",
          "type": "tuple"
        }
      ],
      "stateMutability": "view",
      "type": "function",
      "constant": true
    },
    {
      "inputs": [
        {
          "internalType": "address",
          "name": "user",
          "type": "address"
        }
      ],
      "name": "getMoneyTokenBalance",
      "outputs": [
        {
          "internalType": "uint256",
          "name": "",
          "type": "uint256"
        }
      ],
      "stateMutability": "view",
      "type": "function",
      "constant": true
    },
    {
      "inputs": [
        {
          "internalType": "uint256",
          "name": "assetId",
          "type": "uint256"
        }
      ],
      "name": "getAssetOwner",
      "outputs": [
        {
          "internalType": "address",
          "name": "",
          "type": "address"
        }
      ],
      "stateMutability": "view",
      "type": "function",
      "constant": true
    },
    {
      "inputs": [
        {
          "internalType": "uint256",
          "name": "assetId",
          "type": "uint256"
        },
        {
          "internalType": "uint256",
          "name": "price",
          "type": "uint256"
        }
      ],
      "name": "listAssetForSale",
      "outputs": [],
      "stateMutability": "nonpayable",
      "type": "function"
    },
    {
      "inputs": [
        {
          "internalType": "uint256",
          "name": "assetId",
          "type": "uint256"
        }
      ],
      "name": "removeFromSale",
      "outputs": [],
      "stateMutability": "nonpayable",
      "type": "function"
    },
    {
      "inputs": [],
      "name": "buyMoneyTokens",
      "outputs": [],
      "stateMutability": "payable",
      "type": "function",
      "payable": true
    }
  ],
  "bytecode": "0x60806040523480156200001157600080fd5b5060405180606001604052806029815260200162004060602991396200003d816200004460201b60201c565b5062000175565b80600290805190602001906200005c92919062000060565b5050565b8280546200006e9062000110565b90600052602060002090601f016020900481019282620000925760008555620000de565b82601f10620000ad57805160ff1916838001178555620000de565b82800160010185558215620000de579182015b82811115620000dd578251825591602001919060010190620000c0565b5b509050620000ed9190620000f1565b5090565b5b808211156200010c576000816000905550600101620000f2565b5090565b600060028204905060018216806200012957607f821691505b6020821081141562000140576200013f62000146565b5b50919050565b7f4e487b7100000000000000000000000000000000000000000000000000000000600052602260045260246000fd5b613edb80620001856000396000f3fe6080604052600436106101135760003560e01c80633dc7977f116100a0578063a22cb46511610064578063a22cb465146103b5578063a457e1c0146103de578063e985e9c514610407578063f242432a14610444578063f5f41d7c1461046d57610113565b80633dc7977f146102ef5780634d3820eb146102f95780634e1273f414610310578063664e97041461034d5780638d5802e21461037857610113565b80631361a3b6116100e75780631361a3b6146101fa5780631bc7ffe9146102235780632eb2c2d61461024c57806330b595e5146102755780633a1cb395146102b257610113565b8062fdd58e1461011857806301e307581461015557806301ffc9a7146101805780630e89341c146101bd575b600080fd5b34801561012457600080fd5b5061013f600480360381019061013a9190612a19565b610496565b60405161014c9190613446565b60405180910390f35b34801561016157600080fd5b5061016a61055f565b6040516101779190613446565b60405180910390f35b34801561018c57600080fd5b506101a760048036038101906101a29190612ac1565b61056b565b6040516101b491906131c7565b60405180910390f35b3480156101c957600080fd5b506101e460048036038101906101df9190612b6b565b61064d565b6040516101f191906131e2565b60405180910390f35b34801561020657600080fd5b50610221600480360381019061021c9190612b6b565b6106e1565b005b34801561022f57600080fd5b5061024a60048036038101906102459190612b13565b6107ab565b005b34801561025857600080fd5b50610273600480360381019061026e919061288f565b61099f565b005b34801561028157600080fd5b5061029c6004803603810190610297919061282a565b610a40565b6040516102a99190613446565b60405180910390f35b3480156102be57600080fd5b506102d960048036038101906102d49190612b6b565b610a54565b6040516102e69190613424565b60405180910390f35b6102f7610c1c565b005b34801561030557600080fd5b5061030e610c66565b005b34801561031c57600080fd5b5061033760048036038101906103329190612a55565b610cd3565b604051610344919061316e565b60405180910390f35b34801561035957600080fd5b50610362610e84565b60405161036f9190613446565b60405180910390f35b34801561038457600080fd5b5061039f600480360381019061039a9190612b6b565b610e8a565b6040516103ac9190613091565b60405180910390f35b3480156103c157600080fd5b506103dc60048036038101906103d791906129dd565b610eca565b005b3480156103ea57600080fd5b5061040560048036038101906104009190612b6b565b610ee0565b005b34801561041357600080fd5b5061042e60048036038101906104299190612853565b611302565b60405161043b91906131c7565b60405180910390f35b34801561045057600080fd5b5061046b6004803603810190610466919061294e565b611396565b005b34801561047957600080fd5b50610494600480360381019061048f9190612b94565b611437565b005b60008073ffffffffffffffffffffffffffffffffffffffff168373ffffffffffffffffffffffffffffffffffffffff161415610507576040517f08c379a00000000000000000000000000000000000000000000000000000000081526004016104fe90613264565b60405180910390fd5b60008083815260200190815260200160002060008473ffffffffffffffffffffffffffffffffffffffff1673ffffffffffffffffffffffffffffffffffffffff16815260200190815260200160002054905092915050565b60038060000154905081565b60007fd9b67a26000000000000000000000000000000000000000000000000000000007bffffffffffffffffffffffffffffffffffffffffffffffffffffffff1916827bffffffffffffffffffffffffffffffffffffffffffffffffffffffff1916148061063657507f0e89341c000000000000000000000000000000000000000000000000000000007bffffffffffffffffffffffffffffffffffffffffffffffffffffffff1916827bffffffffffffffffffffffffffffffffffffffffffffffffffffffff1916145b8061064657506106458261150b565b5b9050919050565b60606002805461065c9061378a565b80601f01602080910402602001604051908101604052809291908181526020018280546106889061378a565b80156106d55780601f106106aa576101008083540402835291602001916106d5565b820191906000526020600020905b8154815290600101906020018083116106b857829003601f168201915b50505050509050919050565b60006004600083815260200190815260200160002090508060020160009054906101000a900473ffffffffffffffffffffffffffffffffffffffff1673ffffffffffffffffffffffffffffffffffffffff163373ffffffffffffffffffffffffffffffffffffffff161461078a576040517f08c379a0000000000000000000000000000000000000000000000000000000008152600401610781906132e4565b60405180910390fd5b60008160040160006101000a81548160ff0219169083151502179055505050565b6107b56003611575565b60006107c1600361158b565b905060006040518060a0016040528086868080601f016020809104026020016040519081016040528093929190818152602001838380828437600081840152601f19601f8201169050808301925050505050505081526020018481526020013373ffffffffffffffffffffffffffffffffffffffff168152602001600067ffffffffffffffff81111561087d577f4e487b7100000000000000000000000000000000000000000000000000000000600052604160045260246000fd5b6040519080825280602002602001820160405280156108ab5781602001602082028036833780820191505090505b508152602001600115158152509050806004600084815260200190815260200160002060008201518160000190805190602001906108ea929190612390565b506020820151816001015560408201518160020160006101000a81548173ffffffffffffffffffffffffffffffffffffffff021916908373ffffffffffffffffffffffffffffffffffffffff1602179055506060820151816003019080519060200190610958929190612416565b5060808201518160040160006101000a81548160ff0219169083151502179055509050506109983383600160405180602001604052806000815250611599565b5050505050565b6109a761174a565b73ffffffffffffffffffffffffffffffffffffffff168573ffffffffffffffffffffffffffffffffffffffff1614806109ed57506109ec856109e761174a565b611302565b5b610a2c576040517f08c379a0000000000000000000000000000000000000000000000000000000008152600401610a2390613284565b60405180910390fd5b610a398585858585611752565b5050505050565b6000610a4d826000610496565b9050919050565b610a5c6124a0565b600460008381526020019081526020016000206040518060a0016040529081600082018054610a8a9061378a565b80601f0160208091040260200160405190810160405280929190818152602001828054610ab69061378a565b8015610b035780601f10610ad857610100808354040283529160200191610b03565b820191906000526020600020905b815481529060010190602001808311610ae657829003601f168201915b50505050508152602001600182015481526020016002820160009054906101000a900473ffffffffffffffffffffffffffffffffffffffff1673ffffffffffffffffffffffffffffffffffffffff1673ffffffffffffffffffffffffffffffffffffffff16815260200160038201805480602002602001604051908101604052809291908181526020018280548015610bf157602002820191906000526020600020905b8160009054906101000a900473ffffffffffffffffffffffffffffffffffffffff1673ffffffffffffffffffffffffffffffffffffffff1681526020019060010190808311610ba7575b505050505081526020016004820160009054906101000a900460ff1615151515815250509050919050565b6000670de0b6b3a764000034610c329190613649565b9050600061271082610c44919061367a565b9050610c623360008360405180602001604052806000815250611599565b5050565b6000610c73336000610496565b14610cb3576040517f08c379a0000000000000000000000000000000000000000000000000000000008152600401610caa90613324565b60405180910390fd5b610cd13360006103e860405180602001604052806000815250611599565b565b60608151835114610d19576040517f08c379a0000000000000000000000000000000000000000000000000000000008152600401610d1090613384565b60405180910390fd5b6000835167ffffffffffffffff811115610d5c577f4e487b7100000000000000000000000000000000000000000000000000000000600052604160045260246000fd5b604051908082528060200260200182016040528015610d8a5781602001602082028036833780820191505090505b50905060005b8451811015610e7957610e23858281518110610dd5577f4e487b7100000000000000000000000000000000000000000000000000000000600052603260045260246000fd5b6020026020010151858381518110610e16577f4e487b7100000000000000000000000000000000000000000000000000000000600052603260045260246000fd5b6020026020010151610496565b828281518110610e5c577f4e487b7100000000000000000000000000000000000000000000000000000000600052603260045260246000fd5b60200260200101818152505080610e72906137ed565b9050610d90565b508091505092915050565b61271081565b60006004600083815260200190815260200160002060020160009054906101000a900473ffffffffffffffffffffffffffffffffffffffff169050919050565b610edc610ed561174a565b8383611ac0565b5050565b6000600460008381526020019081526020016000209050600073ffffffffffffffffffffffffffffffffffffffff168160020160009054906101000a900473ffffffffffffffffffffffffffffffffffffffff1673ffffffffffffffffffffffffffffffffffffffff161415610f8b576040517f08c379a0000000000000000000000000000000000000000000000000000000008152600401610f8290613244565b60405180910390fd5b8060040160009054906101000a900460ff16610fdc576040517f08c379a0000000000000000000000000000000000000000000000000000000008152600401610fd3906132a4565b60405180910390fd5b3373ffffffffffffffffffffffffffffffffffffffff168160020160009054906101000a900473ffffffffffffffffffffffffffffffffffffffff1673ffffffffffffffffffffffffffffffffffffffff16141561106f576040517f08c379a000000000000000000000000000000000000000000000000000000000815260040161106690613364565b60405180910390fd5b806001015461107f336000610496565b10156110c0576040517f08c379a00000000000000000000000000000000000000000000000000000000081526004016110b790613404565b60405180910390fd5b611105338260020160009054906101000a900473ffffffffffffffffffffffffffffffffffffffff166000846001015460405180602001604052806000815250611c2d565b6111468160020160009054906101000a900473ffffffffffffffffffffffffffffffffffffffff163384600160405180602001604052806000815250611c2d565b806003018160020160009054906101000a900473ffffffffffffffffffffffffffffffffffffffff169080600181540180825580915050600190039060005260206000200160009091909190916101000a81548173ffffffffffffffffffffffffffffffffffffffff021916908373ffffffffffffffffffffffffffffffffffffffff160217905550338160020160006101000a81548173ffffffffffffffffffffffffffffffffffffffff021916908373ffffffffffffffffffffffffffffffffffffffff1602179055508060046000848152602001908152602001600020600082018160000190805461123a9061378a565b6112459291906124e7565b50600182015481600101556002820160009054906101000a900473ffffffffffffffffffffffffffffffffffffffff168160020160006101000a81548173ffffffffffffffffffffffffffffffffffffffff021916908373ffffffffffffffffffffffffffffffffffffffff16021790555060038201816003019080546112cd929190612574565b506004820160009054906101000a900460ff168160040160006101000a81548160ff0219169083151502179055509050505050565b6000600160008473ffffffffffffffffffffffffffffffffffffffff1673ffffffffffffffffffffffffffffffffffffffff16815260200190815260200160002060008373ffffffffffffffffffffffffffffffffffffffff1673ffffffffffffffffffffffffffffffffffffffff16815260200190815260200160002060009054906101000a900460ff16905092915050565b61139e61174a565b73ffffffffffffffffffffffffffffffffffffffff168573ffffffffffffffffffffffffffffffffffffffff1614806113e457506113e3856113de61174a565b611302565b5b611423576040517f08c379a000000000000000000000000000000000000000000000000000000000815260040161141a90613284565b60405180910390fd5b6114308585858585611c2d565b5050505050565b60006004600084815260200190815260200160002090508060020160009054906101000a900473ffffffffffffffffffffffffffffffffffffffff1673ffffffffffffffffffffffffffffffffffffffff163373ffffffffffffffffffffffffffffffffffffffff16146114e0576040517f08c379a00000000000000000000000000000000000000000000000000000000081526004016114d790613224565b60405180910390fd5b60018160040160006101000a81548160ff021916908315150217905550818160010181905550505050565b60007f01ffc9a7000000000000000000000000000000000000000000000000000000007bffffffffffffffffffffffffffffffffffffffffffffffffffffffff1916827bffffffffffffffffffffffffffffffffffffffffffffffffffffffff1916149050919050565b6001816000016000828254019250508190555050565b600081600001549050919050565b600073ffffffffffffffffffffffffffffffffffffffff168473ffffffffffffffffffffffffffffffffffffffff161415611609576040517f08c379a0000000000000000000000000000000000000000000000000000000008152600401611600906133c4565b60405180910390fd5b600061161361174a565b9050600061162085611ec9565b9050600061162d85611ec9565b905061163e83600089858589611f8f565b8460008088815260200190815260200160002060008973ffffffffffffffffffffffffffffffffffffffff1673ffffffffffffffffffffffffffffffffffffffff168152602001908152602001600020600082825461169d91906135f3565b925050819055508673ffffffffffffffffffffffffffffffffffffffff16600073ffffffffffffffffffffffffffffffffffffffff168473ffffffffffffffffffffffffffffffffffffffff167fc3d58168c5ae7397731d063d5bbf3d657854427343f4c083240f7aacaa2d0f62898960405161171b929190613461565b60405180910390a461173283600089858589611f97565b61174183600089898989611f9f565b50505050505050565b600033905090565b8151835114611796576040517f08c379a000000000000000000000000000000000000000000000000000000000815260040161178d906133a4565b60405180910390fd5b600073ffffffffffffffffffffffffffffffffffffffff168473ffffffffffffffffffffffffffffffffffffffff161415611806576040517f08c379a00000000000000000000000000000000000000000000000000000000081526004016117fd906132c4565b60405180910390fd5b600061181061174a565b9050611820818787878787611f8f565b60005b8451811015611a1d576000858281518110611867577f4e487b7100000000000000000000000000000000000000000000000000000000600052603260045260246000fd5b6020026020010151905060008583815181106118ac577f4e487b7100000000000000000000000000000000000000000000000000000000600052603260045260246000fd5b60200260200101519050600080600084815260200190815260200160002060008b73ffffffffffffffffffffffffffffffffffffffff1673ffffffffffffffffffffffffffffffffffffffff1681526020019081526020016000205490508181101561194d576040517f08c379a000000000000000000000000000000000000000000000000000000000815260040161194490613304565b60405180910390fd5b81810360008085815260200190815260200160002060008c73ffffffffffffffffffffffffffffffffffffffff1673ffffffffffffffffffffffffffffffffffffffff168152602001908152602001600020819055508160008085815260200190815260200160002060008b73ffffffffffffffffffffffffffffffffffffffff1673ffffffffffffffffffffffffffffffffffffffff1681526020019081526020016000206000828254611a0291906135f3565b9250508190555050505080611a16906137ed565b9050611823565b508473ffffffffffffffffffffffffffffffffffffffff168673ffffffffffffffffffffffffffffffffffffffff168273ffffffffffffffffffffffffffffffffffffffff167f4a39dc06d4c0dbc64b70af90fd698a233a518aa5d07e595d983b8c0526c8f7fb8787604051611a94929190613190565b60405180910390a4611aaa818787878787611f97565b611ab8818787878787612186565b505050505050565b8173ffffffffffffffffffffffffffffffffffffffff168373ffffffffffffffffffffffffffffffffffffffff161415611b2f576040517f08c379a0000000000000000000000000000000000000000000000000000000008152600401611b2690613344565b60405180910390fd5b80600160008573ffffffffffffffffffffffffffffffffffffffff1673ffffffffffffffffffffffffffffffffffffffff16815260200190815260200160002060008473ffffffffffffffffffffffffffffffffffffffff1673ffffffffffffffffffffffffffffffffffffffff16815260200190815260200160002060006101000a81548160ff0219169083151502179055508173ffffffffffffffffffffffffffffffffffffffff168373ffffffffffffffffffffffffffffffffffffffff167f17307eab39ab6107e8899845ad3d59bd9653f200f220920489ca2b5937696c3183604051611c2091906131c7565b60405180910390a3505050565b600073ffffffffffffffffffffffffffffffffffffffff168473ffffffffffffffffffffffffffffffffffffffff161415611c9d576040517f08c379a0000000000000000000000000000000000000000000000000000000008152600401611c94906132c4565b60405180910390fd5b6000611ca761174a565b90506000611cb485611ec9565b90506000611cc185611ec9565b9050611cd1838989858589611f8f565b600080600088815260200190815260200160002060008a73ffffffffffffffffffffffffffffffffffffffff1673ffffffffffffffffffffffffffffffffffffffff16815260200190815260200160002054905085811015611d68576040517f08c379a0000000000000000000000000000000000000000000000000000000008152600401611d5f90613304565b60405180910390fd5b85810360008089815260200190815260200160002060008b73ffffffffffffffffffffffffffffffffffffffff1673ffffffffffffffffffffffffffffffffffffffff168152602001908152602001600020819055508560008089815260200190815260200160002060008a73ffffffffffffffffffffffffffffffffffffffff1673ffffffffffffffffffffffffffffffffffffffff1681526020019081526020016000206000828254611e1d91906135f3565b925050819055508773ffffffffffffffffffffffffffffffffffffffff168973ffffffffffffffffffffffffffffffffffffffff168573ffffffffffffffffffffffffffffffffffffffff167fc3d58168c5ae7397731d063d5bbf3d657854427343f4c083240f7aacaa2d0f628a8a604051611e9a929190613461565b60405180910390a4611eb0848a8a86868a611f97565b611ebe848a8a8a8a8a611f9f565b505050505050505050565b60606000600167ffffffffffffffff811115611f0e577f4e487b7100000000000000000000000000000000000000000000000000000000600052604160045260246000fd5b604051908082528060200260200182016040528015611f3c5781602001602082028036833780820191505090505b5090508281600081518110611f7a577f4e487b7100000000000000000000000000000000000000000000000000000000600052603260045260246000fd5b60200260200101818152505080915050919050565b505050505050565b505050505050565b611fbe8473ffffffffffffffffffffffffffffffffffffffff1661236d565b1561217e578373ffffffffffffffffffffffffffffffffffffffff1663f23a6e6187878686866040518663ffffffff1660e01b8152600401612004959493929190613114565b602060405180830381600087803b15801561201e57600080fd5b505af192505050801561204f57506040513d601f19601f8201168201806040525081019061204c9190612aea565b60015b6120f55761205b6138f2565b806308c379a014156120b85750612070613db3565b8061207b57506120ba565b806040517f08c379a00000000000000000000000000000000000000000000000000000000081526004016120af91906131e2565b60405180910390fd5b505b6040517f08c379a00000000000000000000000000000000000000000000000000000000081526004016120ec906133e4565b60405180910390fd5b63f23a6e6160e01b7bffffffffffffffffffffffffffffffffffffffffffffffffffffffff1916817bffffffffffffffffffffffffffffffffffffffffffffffffffffffff19161461217c576040517f08c379a000000000000000000000000000000000000000000000000000000000815260040161217390613204565b60405180910390fd5b505b505050505050565b6121a58473ffffffffffffffffffffffffffffffffffffffff1661236d565b15612365578373ffffffffffffffffffffffffffffffffffffffff1663bc197c8187878686866040518663ffffffff1660e01b81526004016121eb9594939291906130ac565b602060405180830381600087803b15801561220557600080fd5b505af192505050801561223657506040513d601f19601f820116820180604052508101906122339190612aea565b60015b6122dc576122426138f2565b806308c379a0141561229f5750612257613db3565b8061226257506122a1565b806040517f08c379a000000000000000000000000000000000000000000000000000000000815260040161229691906131e2565b60405180910390fd5b505b6040517f08c379a00000000000000000000000000000000000000000000000000000000081526004016122d3906133e4565b60405180910390fd5b63bc197c8160e01b7bffffffffffffffffffffffffffffffffffffffffffffffffffffffff1916817bffffffffffffffffffffffffffffffffffffffffffffffffffffffff191614612363576040517f08c379a000000000000000000000000000000000000000000000000000000000815260040161235a90613204565b60405180910390fd5b505b505050505050565b6000808273ffffffffffffffffffffffffffffffffffffffff163b119050919050565b82805461239c9061378a565b90600052602060002090601f0160209004810192826123be5760008555612405565b82601f106123d757805160ff1916838001178555612405565b82800160010185558215612405579182015b828111156124045782518255916020019190600101906123e9565b5b50905061241291906125c6565b5090565b82805482825590600052602060002090810192821561248f579160200282015b8281111561248e5782518260006101000a81548173ffffffffffffffffffffffffffffffffffffffff021916908373ffffffffffffffffffffffffffffffffffffffff16021790555091602001919060010190612436565b5b50905061249c91906125c6565b5090565b6040518060a001604052806060815260200160008152602001600073ffffffffffffffffffffffffffffffffffffffff168152602001606081526020016000151581525090565b8280546124f39061378a565b90600052602060002090601f0160209004810192826125155760008555612563565b82601f106125265780548555612563565b8280016001018555821561256357600052602060002091601f016020900482015b82811115612562578254825591600101919060010190612547565b5b50905061257091906125c6565b5090565b8280548282559060005260206000209081019282156125b55760005260206000209182015b828111156125b4578254825591600101919060010190612599565b5b5090506125c291906125c6565b5090565b5b808211156125df5760008160009055506001016125c7565b5090565b60006125f66125f1846134af565b61348a565b9050808382526020820190508285602086028201111561261557600080fd5b60005b85811015612645578161262b88826126f9565b845260208401935060208301925050600181019050612618565b5050509392505050565b600061266261265d846134db565b61348a565b9050808382526020820190508285602086028201111561268157600080fd5b60005b858110156126b157816126978882612815565b845260208401935060208301925050600181019050612684565b5050509392505050565b60006126ce6126c984613507565b61348a565b9050828152602081018484840111156126e657600080fd5b6126f1848285613748565b509392505050565b60008135905061270881613e49565b92915050565b600082601f83011261271f57600080fd5b813561272f8482602086016125e3565b91505092915050565b600082601f83011261274957600080fd5b813561275984826020860161264f565b91505092915050565b60008135905061277181613e60565b92915050565b60008135905061278681613e77565b92915050565b60008151905061279b81613e77565b92915050565b600082601f8301126127b257600080fd5b81356127c28482602086016126bb565b91505092915050565b60008083601f8401126127dd57600080fd5b8235905067ffffffffffffffff8111156127f657600080fd5b60208301915083600182028301111561280e57600080fd5b9250929050565b60008135905061282481613e8e565b92915050565b60006020828403121561283c57600080fd5b600061284a848285016126f9565b91505092915050565b6000806040838503121561286657600080fd5b6000612874858286016126f9565b9250506020612885858286016126f9565b9150509250929050565b600080600080600060a086880312156128a757600080fd5b60006128b5888289016126f9565b95505060206128c6888289016126f9565b945050604086013567ffffffffffffffff8111156128e357600080fd5b6128ef88828901612738565b935050606086013567ffffffffffffffff81111561290c57600080fd5b61291888828901612738565b925050608086013567ffffffffffffffff81111561293557600080fd5b612941888289016127a1565b9150509295509295909350565b600080600080600060a0868803121561296657600080fd5b6000612974888289016126f9565b9550506020612985888289016126f9565b945050604061299688828901612815565b93505060606129a788828901612815565b925050608086013567ffffffffffffffff8111156129c457600080fd5b6129d0888289016127a1565b9150509295509295909350565b600080604083850312156129f057600080fd5b60006129fe858286016126f9565b9250506020612a0f85828601612762565b9150509250929050565b60008060408385031215612a2c57600080fd5b6000612a3a858286016126f9565b9250506020612a4b85828601612815565b9150509250929050565b60008060408385031215612a6857600080fd5b600083013567ffffffffffffffff811115612a8257600080fd5b612a8e8582860161270e565b925050602083013567ffffffffffffffff811115612aab57600080fd5b612ab785828601612738565b9150509250929050565b600060208284031215612ad357600080fd5b6000612ae184828501612777565b91505092915050565b600060208284031215612afc57600080fd5b6000612b0a8482850161278c565b91505092915050565b600080600060408486031215612b2857600080fd5b600084013567ffffffffffffffff811115612b4257600080fd5b612b4e868287016127cb565b93509350506020612b6186828701612815565b9150509250925092565b600060208284031215612b7d57600080fd5b6000612b8b84828501612815565b91505092915050565b60008060408385031215612ba757600080fd5b6000612bb585828601612815565b9250506020612bc685828601612815565b9150509250929050565b6000612bdc8383612c00565b60208301905092915050565b6000612bf48383613073565b60208301905092915050565b612c09816136d4565b82525050565b612c18816136d4565b82525050565b6000612c2982613558565b612c33818561359e565b9350612c3e83613538565b8060005b83811015612c6f578151612c568882612bd0565b9750612c6183613584565b925050600181019050612c42565b5085935050505092915050565b6000612c8782613563565b612c9181856135af565b9350612c9c83613548565b8060005b83811015612ccd578151612cb48882612be8565b9750612cbf83613591565b925050600181019050612ca0565b5085935050505092915050565b612ce3816136e6565b82525050565b612cf2816136e6565b82525050565b6000612d038261356e565b612d0d81856135c0565b9350612d1d818560208601613757565b612d2681613914565b840191505092915050565b6000612d3c82613579565b612d4681856135d1565b9350612d56818560208601613757565b612d5f81613914565b840191505092915050565b6000612d7582613579565b612d7f81856135e2565b9350612d8f818560208601613757565b612d9881613914565b840191505092915050565b6000612db06028836135e2565b9150612dbb82613932565b604082019050919050565b6000612dd3602b836135e2565b9150612dde82613981565b604082019050919050565b6000612df66010836135e2565b9150612e01826139d0565b602082019050919050565b6000612e19602a836135e2565b9150612e24826139f9565b604082019050919050565b6000612e3c602e836135e2565b9150612e4782613a48565b604082019050919050565b6000612e5f6016836135e2565b9150612e6a82613a97565b602082019050919050565b6000612e826025836135e2565b9150612e8d82613ac0565b604082019050919050565b6000612ea5602e836135e2565b9150612eb082613b0f565b604082019050919050565b6000612ec8602a836135e2565b9150612ed382613b5e565b604082019050919050565b6000612eeb6018836135e2565b9150612ef682613bad565b602082019050919050565b6000612f0e6029836135e2565b9150612f1982613bd6565b604082019050919050565b6000612f31601c836135e2565b9150612f3c82613c25565b602082019050919050565b6000612f546029836135e2565b9150612f5f82613c4e565b604082019050919050565b6000612f776028836135e2565b9150612f8282613c9d565b604082019050919050565b6000612f9a6021836135e2565b9150612fa582613cec565b604082019050919050565b6000612fbd6034836135e2565b9150612fc882613d3b565b604082019050919050565b6000612fe06013836135e2565b9150612feb82613d8a565b602082019050919050565b600060a08301600083015184820360008601526130138282612d31565b91505060208301516130286020860182613073565b50604083015161303b6040860182612c00565b50606083015184820360608601526130538282612c1e565b91505060808301516130686080860182612cda565b508091505092915050565b61307c8161373e565b82525050565b61308b8161373e565b82525050565b60006020820190506130a66000830184612c0f565b92915050565b600060a0820190506130c16000830188612c0f565b6130ce6020830187612c0f565b81810360408301526130e08186612c7c565b905081810360608301526130f48185612c7c565b905081810360808301526131088184612cf8565b90509695505050505050565b600060a0820190506131296000830188612c0f565b6131366020830187612c0f565b6131436040830186613082565b6131506060830185613082565b81810360808301526131628184612cf8565b90509695505050505050565b600060208201905081810360008301526131888184612c7c565b905092915050565b600060408201905081810360008301526131aa8185612c7c565b905081810360208301526131be8184612c7c565b90509392505050565b60006020820190506131dc6000830184612ce9565b92915050565b600060208201905081810360008301526131fc8184612d6a565b905092915050565b6000602082019050818103600083015261321d81612da3565b9050919050565b6000602082019050818103600083015261323d81612dc6565b9050919050565b6000602082019050818103600083015261325d81612de9565b9050919050565b6000602082019050818103600083015261327d81612e0c565b9050919050565b6000602082019050818103600083015261329d81612e2f565b9050919050565b600060208201905081810360008301526132bd81612e52565b9050919050565b600060208201905081810360008301526132dd81612e75565b9050919050565b600060208201905081810360008301526132fd81612e98565b9050919050565b6000602082019050818103600083015261331d81612ebb565b9050919050565b6000602082019050818103600083015261333d81612ede565b9050919050565b6000602082019050818103600083015261335d81612f01565b9050919050565b6000602082019050818103600083015261337d81612f24565b9050919050565b6000602082019050818103600083015261339d81612f47565b9050919050565b600060208201905081810360008301526133bd81612f6a565b9050919050565b600060208201905081810360008301526133dd81612f8d565b9050919050565b600060208201905081810360008301526133fd81612fb0565b9050919050565b6000602082019050818103600083015261341d81612fd3565b9050919050565b6000602082019050818103600083015261343e8184612ff6565b905092915050565b600060208201905061345b6000830184613082565b92915050565b60006040820190506134766000830185613082565b6134836020830184613082565b9392505050565b60006134946134a5565b90506134a082826137bc565b919050565b6000604051905090565b600067ffffffffffffffff8211156134ca576134c96138c3565b5b602082029050602081019050919050565b600067ffffffffffffffff8211156134f6576134f56138c3565b5b602082029050602081019050919050565b600067ffffffffffffffff821115613522576135216138c3565b5b61352b82613914565b9050602081019050919050565b6000819050602082019050919050565b6000819050602082019050919050565b600081519050919050565b600081519050919050565b600081519050919050565b600081519050919050565b6000602082019050919050565b6000602082019050919050565b600082825260208201905092915050565b600082825260208201905092915050565b600082825260208201905092915050565b600082825260208201905092915050565b600082825260208201905092915050565b60006135fe8261373e565b91506136098361373e565b9250827fffffffffffffffffffffffffffffffffffffffffffffffffffffffffffffffff0382111561363e5761363d613836565b5b828201905092915050565b60006136548261373e565b915061365f8361373e565b92508261366f5761366e613865565b5b828204905092915050565b60006136858261373e565b91506136908361373e565b9250817fffffffffffffffffffffffffffffffffffffffffffffffffffffffffffffffff04831182151516156136c9576136c8613836565b5b828202905092915050565b60006136df8261371e565b9050919050565b60008115159050919050565b60007fffffffff0000000000000000000000000000000000000000000000000000000082169050919050565b600073ffffffffffffffffffffffffffffffffffffffff82169050919050565b6000819050919050565b82818337600083830152505050565b60005b8381101561377557808201518184015260208101905061375a565b83811115613784576000848401525b50505050565b600060028204905060018216806137a257607f821691505b602082108114156137b6576137b5613894565b5b50919050565b6137c582613914565b810181811067ffffffffffffffff821117156137e4576137e36138c3565b5b80604052505050565b60006137f88261373e565b91507fffffffffffffffffffffffffffffffffffffffffffffffffffffffffffffffff82141561382b5761382a613836565b5b600182019050919050565b7f4e487b7100000000000000000000000000000000000000000000000000000000600052601160045260246000fd5b7f4e487b7100000000000000000000000000000000000000000000000000000000600052601260045260246000fd5b7f4e487b7100000000000000000000000000000000000000000000000000000000600052602260045260246000fd5b7f4e487b7100000000000000000000000000000000000000000000000000000000600052604160045260246000fd5b600060033d11156139115760046000803e61390e600051613925565b90505b90565b6000601f19601f8301169050919050565b60008160e01c9050919050565b7f455243313135353a204552433131353552656365697665722072656a6563746560008201527f6420746f6b656e73000000000000000000000000000000000000000000000000602082015250565b7f4f6e6c7920746865206f776e65722063616e206c69737420746865206173736560008201527f7420666f722073616c652e000000000000000000000000000000000000000000602082015250565b7f4173736574206e6f7420666f756e642e00000000000000000000000000000000600082015250565b7f455243313135353a2061646472657373207a65726f206973206e6f742061207660008201527f616c6964206f776e657200000000000000000000000000000000000000000000602082015250565b7f455243313135353a2063616c6c6572206973206e6f7420746f6b656e206f776e60008201527f6572206f7220617070726f766564000000000000000000000000000000000000602082015250565b7f4173736574206973206e6f7420666f722073616c652e00000000000000000000600082015250565b7f455243313135353a207472616e7366657220746f20746865207a65726f20616460008201527f6472657373000000000000000000000000000000000000000000000000000000602082015250565b7f4f6e6c7920746865206f776e65722063616e2072656d6f76652074686520617360008201527f7365742066726f6d2073616c652e000000000000000000000000000000000000602082015250565b7f455243313135353a20696e73756666696369656e742062616c616e636520666f60008201527f72207472616e7366657200000000000000000000000000000000000000000000602082015250565b7f5573657220616c726561647920726567697374657265642e0000000000000000600082015250565b7f455243313135353a2073657474696e6720617070726f76616c2073746174757360008201527f20666f722073656c660000000000000000000000000000000000000000000000602082015250565b7f43616e742062757920796f7572206f776e206173736574732e4c6f4c00000000600082015250565b7f455243313135353a206163636f756e747320616e6420696473206c656e67746860008201527f206d69736d617463680000000000000000000000000000000000000000000000602082015250565b7f455243313135353a2069647320616e6420616d6f756e7473206c656e6774682060008201527f6d69736d61746368000000000000000000000000000000000000000000000000602082015250565b7f455243313135353a206d696e7420746f20746865207a65726f2061646472657360008201527f7300000000000000000000000000000000000000000000000000000000000000602082015250565b7f455243313135353a207472616e7366657220746f206e6f6e2d4552433131353560008201527f526563656976657220696d706c656d656e746572000000000000000000000000602082015250565b7f496e73756666696369656e742066756e64732e00000000000000000000000000600082015250565b600060443d1015613dc357613e46565b613dcb6134a5565b60043d036004823e80513d602482011167ffffffffffffffff82111715613df3575050613e46565b808201805167ffffffffffffffff811115613e115750505050613e46565b80602083010160043d038501811115613e2e575050505050613e46565b613e3d826020018501866137bc565b82955050505050505b90565b613e52816136d4565b8114613e5d57600080fd5b50565b613e69816136e6565b8114613e7457600080fd5b50565b613e80816136f2565b8114613e8b57600080fd5b50565b613e978161373e565b8114613ea257600080fd5b5056fea2646970667358221220be1c37172d91bf5cb096e89075b71cbe1ab6b3ccdba61575edc53c55e69d731664736f6c6343000801003368747470733a2f2f6d6f636b746f6b656e6170692e6c6f63616c2f6170692f746f6b656e2f7b69647d",
  "immutableReferences": {},
  "source": "// SPDX-License-Identifier: MIT\r\npragma solidity 0.8.1;\r\nimport \"@openzeppelin/contracts/token/ERC1155/ERC1155.sol\";\r\nimport \"@openzeppelin/contracts/utils/Counters.sol\";\r\n\r\ncontract Marketplace is ERC1155 {\r\n    using Counters for Counters.Counter;\r\n    Counters.Counter public _assetTokenIds;// non fungible\r\n    uint256 constant MONEY_TOKEN_ID = 0;//fungible\r\n    uint256 public constant RATE = 10000;//number of mtokens per ether\r\n\r\n\r\n    struct Asset {\r\n        string name;\r\n        uint256 price;//in terms of mtokens\r\n        address owner;\r\n        address[] previousOwners;\r\n        bool forSale;\r\n    }\r\n\r\n    constructor() ERC1155(\"https://mocktokenapi.local/api/token/{id}\") {\r\n    \r\n}\r\n\r\n    mapping(uint256 => Asset) private _assets;//mapping asset token id to its details\r\n\r\n\r\n    function registerUser() external {\r\n        require(balanceOf(msg.sender, MONEY_TOKEN_ID) == 0, \"User already registered.\");\r\n        _mint(msg.sender, MONEY_TOKEN_ID, 1000, \"\");//mint 1000 mtokens for the new user\r\n    }\r\n\r\n    function addAsset(string calldata name, uint256 price) external {\r\n        _assetTokenIds.increment();\r\n        uint256 newAssetId = _assetTokenIds.current();\r\n\r\n        Asset memory newAsset = Asset({\r\n            name: name,\r\n            price: price,\r\n            owner: msg.sender,\r\n            previousOwners: new address[](0),\r\n             forSale: true\r\n            \r\n        });\r\n\r\n        _assets[newAssetId] = newAsset;\r\n        _mint(msg.sender, newAssetId, 1, \"\");  //mint one ssset token\r\n    }\r\n\r\n    function purchaseAsset(uint256 assetId) external {\r\n    Asset storage asset = _assets[assetId];//tried memory,push not working\r\n    require(asset.owner != address(0), \"Asset not found.\");//means empty address 0x0000\r\n    require(asset.forSale, \"Asset is not for sale.\");\r\n    require(asset.owner != msg.sender,\"Cant buy your own assets.LoL\");\r\n    require(balanceOf(msg.sender, MONEY_TOKEN_ID) >= asset.price, \"Insufficient funds.\");\r\n\r\n   \r\n    _safeTransferFrom(msg.sender, asset.owner, MONEY_TOKEN_ID, asset.price, \"\"); //transfer mtokens from buyer to seller\r\n\r\n    \r\n    _safeTransferFrom(asset.owner, msg.sender, assetId, 1, \"\");//transfer asset token from seller to buyer\r\n\r\n    // Update asset ownership\r\n    asset.previousOwners.push(asset.owner);\r\n    asset.owner = msg.sender;\r\n    _assets[assetId] = asset;//update with new ownership\r\n}\r\n\r\nfunction viewAsset(uint256 assetId) external view returns (Asset memory) {\r\n    return _assets[assetId];\r\n}\r\n\r\nfunction getMoneyTokenBalance(address user) external view returns (uint256) {\r\n    return balanceOf(user, MONEY_TOKEN_ID);\r\n}\r\nfunction getAssetOwner(uint256 assetId) external view returns (address) {\r\n    return _assets[assetId].owner;\r\n}\r\nfunction listAssetForSale(uint256 assetId, uint256 price) external {\r\n    Asset storage asset = _assets[assetId];\r\n    require(msg.sender == asset.owner, \"Only the owner can list the asset for sale.\");\r\n    asset.forSale = true;\r\n    asset.price = price;\r\n}\r\n\r\nfunction removeFromSale(uint256 assetId) external {\r\n    Asset storage asset = _assets[assetId];\r\n    require(msg.sender == asset.owner, \"Only the owner can remove the asset from sale.\");\r\n    asset.forSale = false;\r\n}\r\n\r\nfunction buyMoneyTokens() external payable {\r\n    uint256 etherAmount = msg.value / 10**18;  // Convert wei to ether\r\n    uint256 tokensToBuy = etherAmount * RATE;\r\n    // Update balances\r\n    _mint(msg.sender, MONEY_TOKEN_ID, tokensToBuy, \"\");\r\n}\r\n\r\n\r\n}\r\n",
  "sourcePath": "C:\\Users\\VX322WZ\\OneDrive - EY\\Desktop\\blockchain_poc\\blockchain_BE\\contracts\\Marketplace.sol",
  "compiler": {
    "name": "solc",
    "version": "0.8.1+commit.df193b15.Emscripten.clang"
  },
  "schemaVersion": "3.4.16",
  "updatedAt": "2023-09-24T22:53:21.129Z",
  "networkType": "ethereum",
  "devdoc": {
    "kind": "dev",
    "methods": {
      "balanceOf(address,uint256)": {
        "details": "See {IERC1155-balanceOf}. Requirements: - `account` cannot be the zero address."
      },
      "balanceOfBatch(address[],uint256[])": {
        "details": "See {IERC1155-balanceOfBatch}. Requirements: - `accounts` and `ids` must have the same length."
      },
      "isApprovedForAll(address,address)": {
        "details": "See {IERC1155-isApprovedForAll}."
      },
      "safeBatchTransferFrom(address,address,uint256[],uint256[],bytes)": {
        "details": "See {IERC1155-safeBatchTransferFrom}."
      },
      "safeTransferFrom(address,address,uint256,uint256,bytes)": {
        "details": "See {IERC1155-safeTransferFrom}."
      },
      "setApprovalForAll(address,bool)": {
        "details": "See {IERC1155-setApprovalForAll}."
      },
      "supportsInterface(bytes4)": {
        "details": "See {IERC165-supportsInterface}."
      },
      "uri(uint256)": {
        "details": "See {IERC1155MetadataURI-uri}. This implementation returns the same URI for *all* token types. It relies on the token type ID substitution mechanism https://eips.ethereum.org/EIPS/eip-1155#metadata[defined in the EIP]. Clients calling this function must replace the `\\{id\\}` substring with the actual token type ID."
      }
    },
    "version": 1
  },
  "userdoc": {
    "kind": "user",
    "methods": {},
    "version": 1
  }
}