{
  "contractName": "Market",
  "abi": [
    {
      "inputs": [],
      "stateMutability": "nonpayable",
      "type": "constructor"
    },
    {
      "anonymous": false,
      "inputs": [
        {
          "indexed": true,
          "internalType": "address",
          "name": "account",
          "type": "address"
        },
        {
          "indexed": true,
          "internalType": "address",
          "name": "operator",
          "type": "address"
        },
        {
          "indexed": false,
          "internalType": "bool",
          "name": "approved",
          "type": "bool"
        }
      ],
      "name": "ApprovalForAll",
      "type": "event"
    },
    {
      "anonymous": false,
      "inputs": [
        {
          "indexed": true,
          "internalType": "address",
          "name": "operator",
          "type": "address"
        },
        {
          "indexed": true,
          "internalType": "address",
          "name": "from",
          "type": "address"
        },
        {
          "indexed": true,
          "internalType": "address",
          "name": "to",
          "type": "address"
        },
        {
          "indexed": false,
          "internalType": "uint256[]",
          "name": "ids",
          "type": "uint256[]"
        },
        {
          "indexed": false,
          "internalType": "uint256[]",
          "name": "values",
          "type": "uint256[]"
        }
      ],
      "name": "TransferBatch",
      "type": "event"
    },
    {
      "anonymous": false,
      "inputs": [
        {
          "indexed": true,
          "internalType": "address",
          "name": "operator",
          "type": "address"
        },
        {
          "indexed": true,
          "internalType": "address",
          "name": "from",
          "type": "address"
        },
        {
          "indexed": true,
          "internalType": "address",
          "name": "to",
          "type": "address"
        },
        {
          "indexed": false,
          "internalType": "uint256",
          "name": "id",
          "type": "uint256"
        },
        {
          "indexed": false,
          "internalType": "uint256",
          "name": "value",
          "type": "uint256"
        }
      ],
      "name": "TransferSingle",
      "type": "event"
    },
    {
      "anonymous": false,
      "inputs": [
        {
          "indexed": false,
          "internalType": "string",
          "name": "value",
          "type": "string"
        },
        {
          "indexed": true,
          "internalType": "uint256",
          "name": "id",
          "type": "uint256"
        }
      ],
      "name": "URI",
      "type": "event"
    },
    {
      "inputs": [],
      "name": "RATE",
      "outputs": [
        {
          "internalType": "uint256",
          "name": "",
          "type": "uint256"
        }
      ],
      "stateMutability": "view",
      "type": "function"
    },
    {
      "inputs": [
        {
          "internalType": "address",
          "name": "account",
          "type": "address"
        },
        {
          "internalType": "uint256",
          "name": "id",
          "type": "uint256"
        }
      ],
      "name": "balanceOf",
      "outputs": [
        {
          "internalType": "uint256",
          "name": "",
          "type": "uint256"
        }
      ],
      "stateMutability": "view",
      "type": "function"
    },
    {
      "inputs": [
        {
          "internalType": "address[]",
          "name": "accounts",
          "type": "address[]"
        },
        {
          "internalType": "uint256[]",
          "name": "ids",
          "type": "uint256[]"
        }
      ],
      "name": "balanceOfBatch",
      "outputs": [
        {
          "internalType": "uint256[]",
          "name": "",
          "type": "uint256[]"
        }
      ],
      "stateMutability": "view",
      "type": "function"
    },
    {
      "inputs": [
        {
          "internalType": "address",
          "name": "account",
          "type": "address"
        },
        {
          "internalType": "address",
          "name": "operator",
          "type": "address"
        }
      ],
      "name": "isApprovedForAll",
      "outputs": [
        {
          "internalType": "bool",
          "name": "",
          "type": "bool"
        }
      ],
      "stateMutability": "view",
      "type": "function"
    },
    {
      "inputs": [
        {
          "internalType": "address",
          "name": "from",
          "type": "address"
        },
        {
          "internalType": "address",
          "name": "to",
          "type": "address"
        },
        {
          "internalType": "uint256[]",
          "name": "ids",
          "type": "uint256[]"
        },
        {
          "internalType": "uint256[]",
          "name": "amounts",
          "type": "uint256[]"
        },
        {
          "internalType": "bytes",
          "name": "data",
          "type": "bytes"
        }
      ],
      "name": "safeBatchTransferFrom",
      "outputs": [],
      "stateMutability": "nonpayable",
      "type": "function"
    },
    {
      "inputs": [
        {
          "internalType": "address",
          "name": "from",
          "type": "address"
        },
        {
          "internalType": "address",
          "name": "to",
          "type": "address"
        },
        {
          "internalType": "uint256",
          "name": "id",
          "type": "uint256"
        },
        {
          "internalType": "uint256",
          "name": "amount",
          "type": "uint256"
        },
        {
          "internalType": "bytes",
          "name": "data",
          "type": "bytes"
        }
      ],
      "name": "safeTransferFrom",
      "outputs": [],
      "stateMutability": "nonpayable",
      "type": "function"
    },
    {
      "inputs": [
        {
          "internalType": "address",
          "name": "operator",
          "type": "address"
        },
        {
          "internalType": "bool",
          "name": "approved",
          "type": "bool"
        }
      ],
      "name": "setApprovalForAll",
      "outputs": [],
      "stateMutability": "nonpayable",
      "type": "function"
    },
    {
      "inputs": [
        {
          "internalType": "bytes4",
          "name": "interfaceId",
          "type": "bytes4"
        }
      ],
      "name": "supportsInterface",
      "outputs": [
        {
          "internalType": "bool",
          "name": "",
          "type": "bool"
        }
      ],
      "stateMutability": "view",
      "type": "function"
    },
    {
      "inputs": [
        {
          "internalType": "uint256",
          "name": "",
          "type": "uint256"
        }
      ],
      "name": "uri",
      "outputs": [
        {
          "internalType": "string",
          "name": "",
          "type": "string"
        }
      ],
      "stateMutability": "view",
      "type": "function"
    },
    {
      "inputs": [],
      "name": "registerUser",
      "outputs": [],
      "stateMutability": "nonpayable",
      "type": "function"
    },
    {
      "inputs": [
        {
          "internalType": "string",
          "name": "name",
          "type": "string"
        },
        {
          "internalType": "uint256",
          "name": "price",
          "type": "uint256"
        }
      ],
      "name": "addAsset",
      "outputs": [],
      "stateMutability": "nonpayable",
      "type": "function"
    },
    {
      "inputs": [
        {
          "internalType": "uint256",
          "name": "assetId",
          "type": "uint256"
        }
      ],
      "name": "purchaseAsset",
      "outputs": [],
      "stateMutability": "nonpayable",
      "type": "function"
    },
    {
      "inputs": [
        {
          "internalType": "uint256",
          "name": "assetId",
          "type": "uint256"
        }
      ],
      "name": "viewAsset",
      "outputs": [
        {
          "components": [
            {
              "internalType": "string",
              "name": "name",
              "type": "string"
            },
            {
              "internalType": "uint256",
              "name": "price",
              "type": "uint256"
            },
            {
              "internalType": "address",
              "name": "owner",
              "type": "address"
            },
            {
              "internalType": "address[]",
              "name": "previousOwners",
              "type": "address[]"
            },
            {
              "internalType": "bool",
              "name": "forSale",
              "type": "bool"
            }
          ],
          "internalType": "struct Market.Asset",
          "name": "",
          "type": "tuple"
        }
      ],
      "stateMutability": "view",
      "type": "function"
    },
    {
      "inputs": [
        {
          "internalType": "address",
          "name": "user",
          "type": "address"
        }
      ],
      "name": "getMoneyTokenBalance",
      "outputs": [
        {
          "internalType": "uint256",
          "name": "",
          "type": "uint256"
        }
      ],
      "stateMutability": "view",
      "type": "function"
    },
    {
      "inputs": [
        {
          "internalType": "uint256",
          "name": "assetId",
          "type": "uint256"
        }
      ],
      "name": "getAssetOwner",
      "outputs": [
        {
          "internalType": "address",
          "name": "",
          "type": "address"
        }
      ],
      "stateMutability": "view",
      "type": "function"
    },
    {
      "inputs": [
        {
          "internalType": "uint256",
          "name": "assetId",
          "type": "uint256"
        },
        {
          "internalType": "uint256",
          "name": "price",
          "type": "uint256"
        }
      ],
      "name": "listAssetForSale",
      "outputs": [],
      "stateMutability": "nonpayable",
      "type": "function"
    },
    {
      "inputs": [
        {
          "internalType": "uint256",
          "name": "assetId",
          "type": "uint256"
        }
      ],
      "name": "removeFromSale",
      "outputs": [],
      "stateMutability": "nonpayable",
      "type": "function"
    },
    {
      "inputs": [],
      "name": "buyMoneyTokens",
      "outputs": [],
      "stateMutability": "payable",
      "type": "function"
    }
  ],
  "bytecode": "0x608060405234801562000010575f80fd5b50604051806060016040528060278152602001620040f7602791396200003c816200004360201b60201c565b50620003a0565b8060029081620000549190620002bc565b5050565b5f81519050919050565b7f4e487b71000000000000000000000000000000000000000000000000000000005f52604160045260245ffd5b7f4e487b71000000000000000000000000000000000000000000000000000000005f52602260045260245ffd5b5f6002820490506001821680620000d457607f821691505b602082108103620000ea57620000e96200008f565b5b50919050565b5f819050815f5260205f209050919050565b5f6020601f8301049050919050565b5f82821b905092915050565b5f600883026200014e7fffffffffffffffffffffffffffffffffffffffffffffffffffffffffffffffff8262000111565b6200015a868362000111565b95508019841693508086168417925050509392505050565b5f819050919050565b5f819050919050565b5f620001a46200019e620001988462000172565b6200017b565b62000172565b9050919050565b5f819050919050565b620001bf8362000184565b620001d7620001ce82620001ab565b8484546200011d565b825550505050565b5f90565b620001ed620001df565b620001fa818484620001b4565b505050565b5b818110156200022157620002155f82620001e3565b60018101905062000200565b5050565b601f82111562000270576200023a81620000f0565b620002458462000102565b8101602085101562000255578190505b6200026d620002648562000102565b830182620001ff565b50505b505050565b5f82821c905092915050565b5f620002925f198460080262000275565b1980831691505092915050565b5f620002ac838362000281565b9150826002028217905092915050565b620002c78262000058565b67ffffffffffffffff811115620002e357620002e262000062565b5b620002ef8254620000bc565b620002fc82828562000225565b5f60209050601f83116001811462000332575f84156200031d578287015190505b6200032985826200029f565b86555062000398565b601f1984166200034286620000f0565b5f5b828110156200036b5784890151825560018201915060208501945060208101905062000344565b868310156200038b578489015162000387601f89168262000281565b8355505b6001600288020188555050505b505050505050565b613d4980620003ae5f395ff3fe608060405260043610610107575f3560e01c80634d3820eb11610094578063a22cb46511610063578063a22cb46514610371578063a457e1c014610399578063e985e9c5146103c1578063f242432a146103fd578063f5f41d7c1461042557610107565b80634d3820eb146102b95780634e1273f4146102cf578063664e97041461030b5780638d5802e21461033557610107565b80631bc7ffe9116100db5780631bc7ffe9146101e75780632eb2c2d61461020f57806330b595e5146102375780633a1cb395146102735780633dc7977f146102af57610107565b8062fdd58e1461010b57806301ffc9a7146101475780630e89341c146101835780631361a3b6146101bf575b5f80fd5b348015610116575f80fd5b50610131600480360381019061012c9190612253565b61044d565b60405161013e91906122a0565b60405180910390f35b348015610152575f80fd5b5061016d6004803603810190610168919061230e565b610510565b60405161017a9190612353565b60405180910390f35b34801561018e575f80fd5b506101a960048036038101906101a4919061236c565b6105f1565b6040516101b69190612421565b60405180910390f35b3480156101ca575f80fd5b506101e560048036038101906101e0919061236c565b610683565b005b3480156101f2575f80fd5b5061020d600480360381019061020891906124a2565b610747565b005b34801561021a575f80fd5b50610235600480360381019061023091906126e7565b610903565b005b348015610242575f80fd5b5061025d600480360381019061025891906127b2565b6109a4565b60405161026a91906122a0565b60405180910390f35b34801561027e575f80fd5b506102996004803603810190610294919061236c565b6109b6565b6040516102a69190612974565b60405180910390f35b6102b7610b74565b005b3480156102c4575f80fd5b506102cd610bba565b005b3480156102da575f80fd5b506102f560048036038101906102f09190612a54565b610c23565b6040516103029190612b72565b60405180910390f35b348015610316575f80fd5b5061031f610d3a565b60405161032c91906122a0565b60405180910390f35b348015610340575f80fd5b5061035b6004803603810190610356919061236c565b610d40565b6040516103689190612ba1565b60405180910390f35b34801561037c575f80fd5b5061039760048036038101906103929190612be4565b610d7c565b005b3480156103a4575f80fd5b506103bf60048036038101906103ba919061236c565b610d92565b005b3480156103cc575f80fd5b506103e760048036038101906103e29190612c22565b6110fc565b6040516103f49190612353565b60405180910390f35b348015610408575f80fd5b50610423600480360381019061041e9190612c60565b61118a565b005b348015610430575f80fd5b5061044b60048036038101906104469190612cf3565b61122b565b005b5f8073ffffffffffffffffffffffffffffffffffffffff168373ffffffffffffffffffffffffffffffffffffffff16036104bc576040517f08c379a00000000000000000000000000000000000000000000000000000000081526004016104b390612da1565b60405180910390fd5b5f808381526020019081526020015f205f8473ffffffffffffffffffffffffffffffffffffffff1673ffffffffffffffffffffffffffffffffffffffff1681526020019081526020015f2054905092915050565b5f7fd9b67a26000000000000000000000000000000000000000000000000000000007bffffffffffffffffffffffffffffffffffffffffffffffffffffffff1916827bffffffffffffffffffffffffffffffffffffffffffffffffffffffff191614806105da57507f0e89341c000000000000000000000000000000000000000000000000000000007bffffffffffffffffffffffffffffffffffffffffffffffffffffffff1916827bffffffffffffffffffffffffffffffffffffffffffffffffffffffff1916145b806105ea57506105e9826112fa565b5b9050919050565b60606002805461060090612dec565b80601f016020809104026020016040519081016040528092919081815260200182805461062c90612dec565b80156106775780601f1061064e57610100808354040283529160200191610677565b820191905f5260205f20905b81548152906001019060200180831161065a57829003601f168201915b50505050509050919050565b5f60045f8381526020019081526020015f209050806002015f9054906101000a900473ffffffffffffffffffffffffffffffffffffffff1673ffffffffffffffffffffffffffffffffffffffff163373ffffffffffffffffffffffffffffffffffffffff1614610728576040517f08c379a000000000000000000000000000000000000000000000000000000000815260040161071f90612e8c565b60405180910390fd5b5f816004015f6101000a81548160ff0219169083151502179055505050565b6107516003611363565b5f61075c6003611377565b90505f6040518060a0016040528086868080601f0160208091040260200160405190810160405280939291908181526020018383808284375f81840152601f19601f8201169050808301925050505050505081526020018481526020013373ffffffffffffffffffffffffffffffffffffffff1681526020015f67ffffffffffffffff8111156107ef576107ee6124ff565b5b60405190808252806020026020018201604052801561081d5781602001602082028036833780820191505090505b5081526020016001151581525090508060045f8481526020019081526020015f205f820151815f0190816108519190613047565b50602082015181600101556040820151816002015f6101000a81548173ffffffffffffffffffffffffffffffffffffffff021916908373ffffffffffffffffffffffffffffffffffffffff16021790555060608201518160030190805190602001906108be929190612081565b506080820151816004015f6101000a81548160ff0219169083151502179055509050506108fc3383600160405180602001604052805f815250611383565b5050505050565b61090b611526565b73ffffffffffffffffffffffffffffffffffffffff168573ffffffffffffffffffffffffffffffffffffffff16148061095157506109508561094b611526565b6110fc565b5b610990576040517f08c379a000000000000000000000000000000000000000000000000000000000815260040161098790613186565b60405180910390fd5b61099d858585858561152d565b5050505050565b5f6109af825f61044d565b9050919050565b6109be612108565b60045f8381526020019081526020015f206040518060a00160405290815f820180546109e990612dec565b80601f0160208091040260200160405190810160405280929190818152602001828054610a1590612dec565b8015610a605780601f10610a3757610100808354040283529160200191610a60565b820191905f5260205f20905b815481529060010190602001808311610a4357829003601f168201915b5050505050815260200160018201548152602001600282015f9054906101000a900473ffffffffffffffffffffffffffffffffffffffff1673ffffffffffffffffffffffffffffffffffffffff1673ffffffffffffffffffffffffffffffffffffffff16815260200160038201805480602002602001604051908101604052809291908181526020018280548015610b4a57602002820191905f5260205f20905b815f9054906101000a900473ffffffffffffffffffffffffffffffffffffffff1673ffffffffffffffffffffffffffffffffffffffff1681526020019060010190808311610b01575b50505050508152602001600482015f9054906101000a900460ff1615151515815250509050919050565b5f670de0b6b3a764000034610b8991906131fe565b90505f61271082610b9a919061322e565b9050610bb6335f8360405180602001604052805f815250611383565b5050565b5f610bc5335f61044d565b14610c05576040517f08c379a0000000000000000000000000000000000000000000000000000000008152600401610bfc906132b9565b60405180910390fd5b610c21335f6103e860405180602001604052805f815250611383565b565b60608151835114610c69576040517f08c379a0000000000000000000000000000000000000000000000000000000008152600401610c6090613347565b60405180910390fd5b5f835167ffffffffffffffff811115610c8557610c846124ff565b5b604051908082528060200260200182016040528015610cb35781602001602082028036833780820191505090505b5090505f5b8451811015610d2f57610cff858281518110610cd757610cd6613365565b5b6020026020010151858381518110610cf257610cf1613365565b5b602002602001015161044d565b828281518110610d1257610d11613365565b5b60200260200101818152505080610d2890613392565b9050610cb8565b508091505092915050565b61271081565b5f60045f8381526020019081526020015f206002015f9054906101000a900473ffffffffffffffffffffffffffffffffffffffff169050919050565b610d8e610d87611526565b838361183b565b5050565b5f60045f8381526020019081526020015f2090505f73ffffffffffffffffffffffffffffffffffffffff16816002015f9054906101000a900473ffffffffffffffffffffffffffffffffffffffff1673ffffffffffffffffffffffffffffffffffffffff1603610e37576040517f08c379a0000000000000000000000000000000000000000000000000000000008152600401610e2e90613423565b60405180910390fd5b806004015f9054906101000a900460ff16610e87576040517f08c379a0000000000000000000000000000000000000000000000000000000008152600401610e7e9061348b565b60405180910390fd5b8060010154610e96335f61044d565b1015610ed7576040517f08c379a0000000000000000000000000000000000000000000000000000000008152600401610ece906134f3565b60405180910390fd5b610f1933826002015f9054906101000a900473ffffffffffffffffffffffffffffffffffffffff165f846001015460405180602001604052805f8152506119a2565b610f58816002015f9054906101000a900473ffffffffffffffffffffffffffffffffffffffff163384600160405180602001604052805f8152506119a2565b80600301816002015f9054906101000a900473ffffffffffffffffffffffffffffffffffffffff16908060018154018082558091505060019003905f5260205f20015f9091909190916101000a81548173ffffffffffffffffffffffffffffffffffffffff021916908373ffffffffffffffffffffffffffffffffffffffff16021790555033816002015f6101000a81548173ffffffffffffffffffffffffffffffffffffffff021916908373ffffffffffffffffffffffffffffffffffffffff1602179055508060045f8481526020019081526020015f205f8201815f0190816110439190613526565b5060018201548160010155600282015f9054906101000a900473ffffffffffffffffffffffffffffffffffffffff16816002015f6101000a81548173ffffffffffffffffffffffffffffffffffffffff021916908373ffffffffffffffffffffffffffffffffffffffff16021790555060038201816003019080546110c992919061214c565b50600482015f9054906101000a900460ff16816004015f6101000a81548160ff0219169083151502179055509050505050565b5f60015f8473ffffffffffffffffffffffffffffffffffffffff1673ffffffffffffffffffffffffffffffffffffffff1681526020019081526020015f205f8373ffffffffffffffffffffffffffffffffffffffff1673ffffffffffffffffffffffffffffffffffffffff1681526020019081526020015f205f9054906101000a900460ff16905092915050565b611192611526565b73ffffffffffffffffffffffffffffffffffffffff168573ffffffffffffffffffffffffffffffffffffffff1614806111d857506111d7856111d2611526565b6110fc565b5b611217576040517f08c379a000000000000000000000000000000000000000000000000000000000815260040161120e90613186565b60405180910390fd5b61122485858585856119a2565b5050505050565b5f60045f8481526020019081526020015f209050806002015f9054906101000a900473ffffffffffffffffffffffffffffffffffffffff1673ffffffffffffffffffffffffffffffffffffffff163373ffffffffffffffffffffffffffffffffffffffff16146112d0576040517f08c379a00000000000000000000000000000000000000000000000000000000081526004016112c79061367b565b60405180910390fd5b6001816004015f6101000a81548160ff021916908315150217905550818160010181905550505050565b5f7f01ffc9a7000000000000000000000000000000000000000000000000000000007bffffffffffffffffffffffffffffffffffffffffffffffffffffffff1916827bffffffffffffffffffffffffffffffffffffffffffffffffffffffff1916149050919050565b6001815f015f828254019250508190555050565b5f815f01549050919050565b5f73ffffffffffffffffffffffffffffffffffffffff168473ffffffffffffffffffffffffffffffffffffffff16036113f1576040517f08c379a00000000000000000000000000000000000000000000000000000000081526004016113e890613709565b60405180910390fd5b5f6113fa611526565b90505f61140685611c2b565b90505f61141285611c2b565b9050611422835f89858589611ca3565b845f808881526020019081526020015f205f8973ffffffffffffffffffffffffffffffffffffffff1673ffffffffffffffffffffffffffffffffffffffff1681526020019081526020015f205f82825461147c9190613727565b925050819055508673ffffffffffffffffffffffffffffffffffffffff165f73ffffffffffffffffffffffffffffffffffffffff168473ffffffffffffffffffffffffffffffffffffffff167fc3d58168c5ae7397731d063d5bbf3d657854427343f4c083240f7aacaa2d0f6289896040516114f992919061375a565b60405180910390a461150f835f89858589611cab565b61151d835f89898989611cb3565b50505050505050565b5f33905090565b8151835114611571576040517f08c379a0000000000000000000000000000000000000000000000000000000008152600401611568906137f1565b60405180910390fd5b5f73ffffffffffffffffffffffffffffffffffffffff168473ffffffffffffffffffffffffffffffffffffffff16036115df576040517f08c379a00000000000000000000000000000000000000000000000000000000081526004016115d69061387f565b60405180910390fd5b5f6115e8611526565b90506115f8818787878787611ca3565b5f5b8451811015611798575f85828151811061161757611616613365565b5b602002602001015190505f85838151811061163557611634613365565b5b602002602001015190505f805f8481526020019081526020015f205f8b73ffffffffffffffffffffffffffffffffffffffff1673ffffffffffffffffffffffffffffffffffffffff1681526020019081526020015f20549050818110156116d1576040517f08c379a00000000000000000000000000000000000000000000000000000000081526004016116c89061390d565b60405180910390fd5b8181035f808581526020019081526020015f205f8c73ffffffffffffffffffffffffffffffffffffffff1673ffffffffffffffffffffffffffffffffffffffff1681526020019081526020015f2081905550815f808581526020019081526020015f205f8b73ffffffffffffffffffffffffffffffffffffffff1673ffffffffffffffffffffffffffffffffffffffff1681526020019081526020015f205f82825461177d9190613727565b925050819055505050508061179190613392565b90506115fa565b508473ffffffffffffffffffffffffffffffffffffffff168673ffffffffffffffffffffffffffffffffffffffff168273ffffffffffffffffffffffffffffffffffffffff167f4a39dc06d4c0dbc64b70af90fd698a233a518aa5d07e595d983b8c0526c8f7fb878760405161180f92919061392b565b60405180910390a4611825818787878787611cab565b611833818787878787611e89565b505050505050565b8173ffffffffffffffffffffffffffffffffffffffff168373ffffffffffffffffffffffffffffffffffffffff16036118a9576040517f08c379a00000000000000000000000000000000000000000000000000000000081526004016118a0906139d0565b60405180910390fd5b8060015f8573ffffffffffffffffffffffffffffffffffffffff1673ffffffffffffffffffffffffffffffffffffffff1681526020019081526020015f205f8473ffffffffffffffffffffffffffffffffffffffff1673ffffffffffffffffffffffffffffffffffffffff1681526020019081526020015f205f6101000a81548160ff0219169083151502179055508173ffffffffffffffffffffffffffffffffffffffff168373ffffffffffffffffffffffffffffffffffffffff167f17307eab39ab6107e8899845ad3d59bd9653f200f220920489ca2b5937696c31836040516119959190612353565b60405180910390a3505050565b5f73ffffffffffffffffffffffffffffffffffffffff168473ffffffffffffffffffffffffffffffffffffffff1603611a10576040517f08c379a0000000000000000000000000000000000000000000000000000000008152600401611a079061387f565b60405180910390fd5b5f611a19611526565b90505f611a2585611c2b565b90505f611a3185611c2b565b9050611a41838989858589611ca3565b5f805f8881526020019081526020015f205f8a73ffffffffffffffffffffffffffffffffffffffff1673ffffffffffffffffffffffffffffffffffffffff1681526020019081526020015f2054905085811015611ad3576040517f08c379a0000000000000000000000000000000000000000000000000000000008152600401611aca9061390d565b60405180910390fd5b8581035f808981526020019081526020015f205f8b73ffffffffffffffffffffffffffffffffffffffff1673ffffffffffffffffffffffffffffffffffffffff1681526020019081526020015f2081905550855f808981526020019081526020015f205f8a73ffffffffffffffffffffffffffffffffffffffff1673ffffffffffffffffffffffffffffffffffffffff1681526020019081526020015f205f828254611b7f9190613727565b925050819055508773ffffffffffffffffffffffffffffffffffffffff168973ffffffffffffffffffffffffffffffffffffffff168573ffffffffffffffffffffffffffffffffffffffff167fc3d58168c5ae7397731d063d5bbf3d657854427343f4c083240f7aacaa2d0f628a8a604051611bfc92919061375a565b60405180910390a4611c12848a8a86868a611cab565b611c20848a8a8a8a8a611cb3565b505050505050505050565b60605f600167ffffffffffffffff811115611c4957611c486124ff565b5b604051908082528060200260200182016040528015611c775781602001602082028036833780820191505090505b50905082815f81518110611c8e57611c8d613365565b5b60200260200101818152505080915050919050565b505050505050565b505050505050565b611cd28473ffffffffffffffffffffffffffffffffffffffff1661205f565b15611e81578373ffffffffffffffffffffffffffffffffffffffff1663f23a6e6187878686866040518663ffffffff1660e01b8152600401611d18959493929190613a40565b6020604051808303815f875af1925050508015611d5357506040513d601f19601f82011682018060405250810190611d509190613aac565b60015b611df857611d5f613ae3565b806308c379a003611dbb5750611d73613b02565b80611d7e5750611dbd565b806040517f08c379a0000000000000000000000000000000000000000000000000000000008152600401611db29190612421565b60405180910390fd5b505b6040517f08c379a0000000000000000000000000000000000000000000000000000000008152600401611def90613c01565b60405180910390fd5b63f23a6e6160e01b7bffffffffffffffffffffffffffffffffffffffffffffffffffffffff1916817bffffffffffffffffffffffffffffffffffffffffffffffffffffffff191614611e7f576040517f08c379a0000000000000000000000000000000000000000000000000000000008152600401611e7690613c8f565b60405180910390fd5b505b505050505050565b611ea88473ffffffffffffffffffffffffffffffffffffffff1661205f565b15612057578373ffffffffffffffffffffffffffffffffffffffff1663bc197c8187878686866040518663ffffffff1660e01b8152600401611eee959493929190613cad565b6020604051808303815f875af1925050508015611f2957506040513d601f19601f82011682018060405250810190611f269190613aac565b60015b611fce57611f35613ae3565b806308c379a003611f915750611f49613b02565b80611f545750611f93565b806040517f08c379a0000000000000000000000000000000000000000000000000000000008152600401611f889190612421565b60405180910390fd5b505b6040517f08c379a0000000000000000000000000000000000000000000000000000000008152600401611fc590613c01565b60405180910390fd5b63bc197c8160e01b7bffffffffffffffffffffffffffffffffffffffffffffffffffffffff1916817bffffffffffffffffffffffffffffffffffffffffffffffffffffffff191614612055576040517f08c379a000000000000000000000000000000000000000000000000000000000815260040161204c90613c8f565b60405180910390fd5b505b505050505050565b5f808273ffffffffffffffffffffffffffffffffffffffff163b119050919050565b828054828255905f5260205f209081019282156120f7579160200282015b828111156120f6578251825f6101000a81548173ffffffffffffffffffffffffffffffffffffffff021916908373ffffffffffffffffffffffffffffffffffffffff1602179055509160200191906001019061209f565b5b509050612104919061219a565b5090565b6040518060a00160405280606081526020015f81526020015f73ffffffffffffffffffffffffffffffffffffffff168152602001606081526020015f151581525090565b828054828255905f5260205f20908101928215612189575f5260205f209182015b8281111561218857825482559160010191906001019061216d565b5b509050612196919061219a565b5090565b5b808211156121b1575f815f90555060010161219b565b5090565b5f604051905090565b5f80fd5b5f80fd5b5f73ffffffffffffffffffffffffffffffffffffffff82169050919050565b5f6121ef826121c6565b9050919050565b6121ff816121e5565b8114612209575f80fd5b50565b5f8135905061221a816121f6565b92915050565b5f819050919050565b61223281612220565b811461223c575f80fd5b50565b5f8135905061224d81612229565b92915050565b5f8060408385031215612269576122686121be565b5b5f6122768582860161220c565b92505060206122878582860161223f565b9150509250929050565b61229a81612220565b82525050565b5f6020820190506122b35f830184612291565b92915050565b5f7fffffffff0000000000000000000000000000000000000000000000000000000082169050919050565b6122ed816122b9565b81146122f7575f80fd5b50565b5f81359050612308816122e4565b92915050565b5f60208284031215612323576123226121be565b5b5f612330848285016122fa565b91505092915050565b5f8115159050919050565b61234d81612339565b82525050565b5f6020820190506123665f830184612344565b92915050565b5f60208284031215612381576123806121be565b5b5f61238e8482850161223f565b91505092915050565b5f81519050919050565b5f82825260208201905092915050565b5f5b838110156123ce5780820151818401526020810190506123b3565b5f8484015250505050565b5f601f19601f8301169050919050565b5f6123f382612397565b6123fd81856123a1565b935061240d8185602086016123b1565b612416816123d9565b840191505092915050565b5f6020820190508181035f83015261243981846123e9565b905092915050565b5f80fd5b5f80fd5b5f80fd5b5f8083601f84011261246257612461612441565b5b8235905067ffffffffffffffff81111561247f5761247e612445565b5b60208301915083600182028301111561249b5761249a612449565b5b9250929050565b5f805f604084860312156124b9576124b86121be565b5b5f84013567ffffffffffffffff8111156124d6576124d56121c2565b5b6124e28682870161244d565b935093505060206124f58682870161223f565b9150509250925092565b7f4e487b71000000000000000000000000000000000000000000000000000000005f52604160045260245ffd5b612535826123d9565b810181811067ffffffffffffffff82111715612554576125536124ff565b5b80604052505050565b5f6125666121b5565b9050612572828261252c565b919050565b5f67ffffffffffffffff821115612591576125906124ff565b5b602082029050602081019050919050565b5f6125b46125af84612577565b61255d565b905080838252602082019050602084028301858111156125d7576125d6612449565b5b835b8181101561260057806125ec888261223f565b8452602084019350506020810190506125d9565b5050509392505050565b5f82601f83011261261e5761261d612441565b5b813561262e8482602086016125a2565b91505092915050565b5f80fd5b5f67ffffffffffffffff821115612655576126546124ff565b5b61265e826123d9565b9050602081019050919050565b828183375f83830152505050565b5f61268b6126868461263b565b61255d565b9050828152602081018484840111156126a7576126a6612637565b5b6126b284828561266b565b509392505050565b5f82601f8301126126ce576126cd612441565b5b81356126de848260208601612679565b91505092915050565b5f805f805f60a08688031215612700576126ff6121be565b5b5f61270d8882890161220c565b955050602061271e8882890161220c565b945050604086013567ffffffffffffffff81111561273f5761273e6121c2565b5b61274b8882890161260a565b935050606086013567ffffffffffffffff81111561276c5761276b6121c2565b5b6127788882890161260a565b925050608086013567ffffffffffffffff811115612799576127986121c2565b5b6127a5888289016126ba565b9150509295509295909350565b5f602082840312156127c7576127c66121be565b5b5f6127d48482850161220c565b91505092915050565b5f82825260208201905092915050565b5f6127f782612397565b61280181856127dd565b93506128118185602086016123b1565b61281a816123d9565b840191505092915050565b61282e81612220565b82525050565b61283d816121e5565b82525050565b5f81519050919050565b5f82825260208201905092915050565b5f819050602082019050919050565b5f6128778383612834565b60208301905092915050565b5f602082019050919050565b5f61289982612843565b6128a3818561284d565b93506128ae8361285d565b805f5b838110156128de5781516128c5888261286c565b97506128d083612883565b9250506001810190506128b1565b5085935050505092915050565b6128f481612339565b82525050565b5f60a083015f8301518482035f86015261291482826127ed565b91505060208301516129296020860182612825565b50604083015161293c6040860182612834565b5060608301518482036060860152612954828261288f565b915050608083015161296960808601826128eb565b508091505092915050565b5f6020820190508181035f83015261298c81846128fa565b905092915050565b5f67ffffffffffffffff8211156129ae576129ad6124ff565b5b602082029050602081019050919050565b5f6129d16129cc84612994565b61255d565b905080838252602082019050602084028301858111156129f4576129f3612449565b5b835b81811015612a1d5780612a09888261220c565b8452602084019350506020810190506129f6565b5050509392505050565b5f82601f830112612a3b57612a3a612441565b5b8135612a4b8482602086016129bf565b91505092915050565b5f8060408385031215612a6a57612a696121be565b5b5f83013567ffffffffffffffff811115612a8757612a866121c2565b5b612a9385828601612a27565b925050602083013567ffffffffffffffff811115612ab457612ab36121c2565b5b612ac08582860161260a565b9150509250929050565b5f81519050919050565b5f82825260208201905092915050565b5f819050602082019050919050565b5f612afe8383612825565b60208301905092915050565b5f602082019050919050565b5f612b2082612aca565b612b2a8185612ad4565b9350612b3583612ae4565b805f5b83811015612b65578151612b4c8882612af3565b9750612b5783612b0a565b925050600181019050612b38565b5085935050505092915050565b5f6020820190508181035f830152612b8a8184612b16565b905092915050565b612b9b816121e5565b82525050565b5f602082019050612bb45f830184612b92565b92915050565b612bc381612339565b8114612bcd575f80fd5b50565b5f81359050612bde81612bba565b92915050565b5f8060408385031215612bfa57612bf96121be565b5b5f612c078582860161220c565b9250506020612c1885828601612bd0565b9150509250929050565b5f8060408385031215612c3857612c376121be565b5b5f612c458582860161220c565b9250506020612c568582860161220c565b9150509250929050565b5f805f805f60a08688031215612c7957612c786121be565b5b5f612c868882890161220c565b9550506020612c978882890161220c565b9450506040612ca88882890161223f565b9350506060612cb98882890161223f565b925050608086013567ffffffffffffffff811115612cda57612cd96121c2565b5b612ce6888289016126ba565b9150509295509295909350565b5f8060408385031215612d0957612d086121be565b5b5f612d168582860161223f565b9250506020612d278582860161223f565b9150509250929050565b7f455243313135353a2061646472657373207a65726f206973206e6f74206120765f8201527f616c6964206f776e657200000000000000000000000000000000000000000000602082015250565b5f612d8b602a836123a1565b9150612d9682612d31565b604082019050919050565b5f6020820190508181035f830152612db881612d7f565b9050919050565b7f4e487b71000000000000000000000000000000000000000000000000000000005f52602260045260245ffd5b5f6002820490506001821680612e0357607f821691505b602082108103612e1657612e15612dbf565b5b50919050565b7f4f6e6c7920746865206f776e65722063616e2072656d6f7665207468652061735f8201527f7365742066726f6d2073616c652e000000000000000000000000000000000000602082015250565b5f612e76602e836123a1565b9150612e8182612e1c565b604082019050919050565b5f6020820190508181035f830152612ea381612e6a565b9050919050565b5f819050815f5260205f209050919050565b5f6020601f8301049050919050565b5f82821b905092915050565b5f60088302612f067fffffffffffffffffffffffffffffffffffffffffffffffffffffffffffffffff82612ecb565b612f108683612ecb565b95508019841693508086168417925050509392505050565b5f819050919050565b5f612f4b612f46612f4184612220565b612f28565b612220565b9050919050565b5f819050919050565b612f6483612f31565b612f78612f7082612f52565b848454612ed7565b825550505050565b5f90565b612f8c612f80565b612f97818484612f5b565b505050565b5b81811015612fba57612faf5f82612f84565b600181019050612f9d565b5050565b601f821115612fff57612fd081612eaa565b612fd984612ebc565b81016020851015612fe8578190505b612ffc612ff485612ebc565b830182612f9c565b50505b505050565b5f82821c905092915050565b5f61301f5f1984600802613004565b1980831691505092915050565b5f6130378383613010565b9150826002028217905092915050565b61305082612397565b67ffffffffffffffff811115613069576130686124ff565b5b6130738254612dec565b61307e828285612fbe565b5f60209050601f8311600181146130af575f841561309d578287015190505b6130a7858261302c565b86555061310e565b601f1984166130bd86612eaa565b5f5b828110156130e4578489015182556001820191506020850194506020810190506130bf565b8683101561310157848901516130fd601f891682613010565b8355505b6001600288020188555050505b505050505050565b7f455243313135353a2063616c6c6572206973206e6f7420746f6b656e206f776e5f8201527f6572206f7220617070726f766564000000000000000000000000000000000000602082015250565b5f613170602e836123a1565b915061317b82613116565b604082019050919050565b5f6020820190508181035f83015261319d81613164565b9050919050565b7f4e487b71000000000000000000000000000000000000000000000000000000005f52601260045260245ffd5b7f4e487b71000000000000000000000000000000000000000000000000000000005f52601160045260245ffd5b5f61320882612220565b915061321383612220565b925082613223576132226131a4565b5b828204905092915050565b5f61323882612220565b915061324383612220565b925082820261325181612220565b91508282048414831517613268576132676131d1565b5b5092915050565b7f5573657220616c726561647920726567697374657265642e00000000000000005f82015250565b5f6132a36018836123a1565b91506132ae8261326f565b602082019050919050565b5f6020820190508181035f8301526132d081613297565b9050919050565b7f455243313135353a206163636f756e747320616e6420696473206c656e6774685f8201527f206d69736d617463680000000000000000000000000000000000000000000000602082015250565b5f6133316029836123a1565b915061333c826132d7565b604082019050919050565b5f6020820190508181035f83015261335e81613325565b9050919050565b7f4e487b71000000000000000000000000000000000000000000000000000000005f52603260045260245ffd5b5f61339c82612220565b91507fffffffffffffffffffffffffffffffffffffffffffffffffffffffffffffffff82036133ce576133cd6131d1565b5b600182019050919050565b7f4173736574206e6f7420666f756e642e000000000000000000000000000000005f82015250565b5f61340d6010836123a1565b9150613418826133d9565b602082019050919050565b5f6020820190508181035f83015261343a81613401565b9050919050565b7f4173736574206973206e6f7420666f722073616c652e000000000000000000005f82015250565b5f6134756016836123a1565b915061348082613441565b602082019050919050565b5f6020820190508181035f8301526134a281613469565b9050919050565b7f496e73756666696369656e742066756e64732e000000000000000000000000005f82015250565b5f6134dd6013836123a1565b91506134e8826134a9565b602082019050919050565b5f6020820190508181035f83015261350a816134d1565b9050919050565b5f8154905061351f81612dec565b9050919050565b818103613534575050613609565b61353d82613511565b67ffffffffffffffff811115613556576135556124ff565b5b6135608254612dec565b61356b828285612fbe565b5f601f831160018114613598575f8415613586578287015490505b613590858261302c565b865550613602565b601f1984166135a687612eaa565b96506135b186612eaa565b5f5b828110156135d8578489015482556001820191506001850194506020810190506135b3565b868310156135f557848901546135f1601f891682613010565b8355505b6001600288020188555050505b5050505050505b565b7f4f6e6c7920746865206f776e65722063616e206c6973742074686520617373655f8201527f7420666f722073616c652e000000000000000000000000000000000000000000602082015250565b5f613665602b836123a1565b91506136708261360b565b604082019050919050565b5f6020820190508181035f83015261369281613659565b9050919050565b7f455243313135353a206d696e7420746f20746865207a65726f206164647265735f8201527f7300000000000000000000000000000000000000000000000000000000000000602082015250565b5f6136f36021836123a1565b91506136fe82613699565b604082019050919050565b5f6020820190508181035f830152613720816136e7565b9050919050565b5f61373182612220565b915061373c83612220565b9250828201905080821115613754576137536131d1565b5b92915050565b5f60408201905061376d5f830185612291565b61377a6020830184612291565b9392505050565b7f455243313135353a2069647320616e6420616d6f756e7473206c656e677468205f8201527f6d69736d61746368000000000000000000000000000000000000000000000000602082015250565b5f6137db6028836123a1565b91506137e682613781565b604082019050919050565b5f6020820190508181035f830152613808816137cf565b9050919050565b7f455243313135353a207472616e7366657220746f20746865207a65726f2061645f8201527f6472657373000000000000000000000000000000000000000000000000000000602082015250565b5f6138696025836123a1565b91506138748261380f565b604082019050919050565b5f6020820190508181035f8301526138968161385d565b9050919050565b7f455243313135353a20696e73756666696369656e742062616c616e636520666f5f8201527f72207472616e7366657200000000000000000000000000000000000000000000602082015250565b5f6138f7602a836123a1565b91506139028261389d565b604082019050919050565b5f6020820190508181035f830152613924816138eb565b9050919050565b5f6040820190508181035f8301526139438185612b16565b905081810360208301526139578184612b16565b90509392505050565b7f455243313135353a2073657474696e6720617070726f76616c207374617475735f8201527f20666f722073656c660000000000000000000000000000000000000000000000602082015250565b5f6139ba6029836123a1565b91506139c582613960565b604082019050919050565b5f6020820190508181035f8301526139e7816139ae565b9050919050565b5f81519050919050565b5f82825260208201905092915050565b5f613a12826139ee565b613a1c81856139f8565b9350613a2c8185602086016123b1565b613a35816123d9565b840191505092915050565b5f60a082019050613a535f830188612b92565b613a606020830187612b92565b613a6d6040830186612291565b613a7a6060830185612291565b8181036080830152613a8c8184613a08565b90509695505050505050565b5f81519050613aa6816122e4565b92915050565b5f60208284031215613ac157613ac06121be565b5b5f613ace84828501613a98565b91505092915050565b5f8160e01c9050919050565b5f60033d1115613aff5760045f803e613afc5f51613ad7565b90505b90565b5f60443d10613b8e57613b136121b5565b60043d036004823e80513d602482011167ffffffffffffffff82111715613b3b575050613b8e565b808201805167ffffffffffffffff811115613b595750505050613b8e565b80602083010160043d038501811115613b76575050505050613b8e565b613b858260200185018661252c565b82955050505050505b90565b7f455243313135353a207472616e7366657220746f206e6f6e2d455243313135355f8201527f526563656976657220696d706c656d656e746572000000000000000000000000602082015250565b5f613beb6034836123a1565b9150613bf682613b91565b604082019050919050565b5f6020820190508181035f830152613c1881613bdf565b9050919050565b7f455243313135353a204552433131353552656365697665722072656a656374655f8201527f6420746f6b656e73000000000000000000000000000000000000000000000000602082015250565b5f613c796028836123a1565b9150613c8482613c1f565b604082019050919050565b5f6020820190508181035f830152613ca681613c6d565b9050919050565b5f60a082019050613cc05f830188612b92565b613ccd6020830187612b92565b8181036040830152613cdf8186612b16565b90508181036060830152613cf38185612b16565b90508181036080830152613d078184613a08565b9050969550505050505056fea2646970667358221220038c202208a05eaa608353f97e9e4406bfbda16705dd379a735a243c468e6e5164736f6c6343000815003368747470733a2f2f6578616d706c652e636f6d2f6170692f746f6b656e2f7b69647d2e6a736f6e",
  "immutableReferences": {},
  "source": "// SPDX-License-Identifier: MIT\r\npragma solidity ^0.8.0;\r\nimport \"@openzeppelin/contracts/token/ERC1155/ERC1155.sol\";\r\nimport \"@openzeppelin/contracts/utils/Counters.sol\";\r\n\r\ncontract Market is ERC1155 {\r\n    using Counters for Counters.Counter;\r\n    Counters.Counter private _assetTokenIds;// non fungible\r\n    uint256 constant MONEY_TOKEN_ID = 0;//fungible\r\n    uint256 public constant RATE = 10000;//number of mtokens per ether\r\n\r\n\r\n    struct Asset {\r\n        string name;\r\n        uint256 price;//in terms of mtokens\r\n        address owner;\r\n        address[] previousOwners;\r\n        bool forSale;\r\n    }\r\n\r\n    constructor() ERC1155(\"https://example.com/api/token/{id}.json\") {\r\n    \r\n}\r\n\r\n    mapping(uint256 => Asset) private _assets;//mapping asset token id to its details\r\n\r\n\r\n    function registerUser() external {\r\n        require(balanceOf(msg.sender, MONEY_TOKEN_ID) == 0, \"User already registered.\");\r\n        _mint(msg.sender, MONEY_TOKEN_ID, 1000, \"\");//mint 1000 mtokens for the new user\r\n    }\r\n\r\n    function addAsset(string calldata name, uint256 price) external {\r\n        _assetTokenIds.increment();\r\n        uint256 newAssetId = _assetTokenIds.current();\r\n\r\n        Asset memory newAsset = Asset({\r\n            name: name,\r\n            price: price,\r\n            owner: msg.sender,\r\n            previousOwners: new address[](0),\r\n             forSale: true\r\n            \r\n        });\r\n\r\n        _assets[newAssetId] = newAsset;\r\n        _mint(msg.sender, newAssetId, 1, \"\");  //mint one ssset token\r\n    }\r\n\r\n    function purchaseAsset(uint256 assetId) external {\r\n    Asset storage asset = _assets[assetId];//tried memory,push not working\r\n    require(asset.owner != address(0), \"Asset not found.\");//means empty address 0x0000\r\n    require(asset.forSale, \"Asset is not for sale.\");\r\n    require(balanceOf(msg.sender, MONEY_TOKEN_ID) >= asset.price, \"Insufficient funds.\");\r\n\r\n   \r\n    _safeTransferFrom(msg.sender, asset.owner, MONEY_TOKEN_ID, asset.price, \"\"); //transfer mtokens from buyer to seller\r\n\r\n    \r\n    _safeTransferFrom(asset.owner, msg.sender, assetId, 1, \"\");//transfer asset token from seller to buyer\r\n\r\n    // Update asset ownership\r\n    asset.previousOwners.push(asset.owner);\r\n    asset.owner = msg.sender;\r\n    _assets[assetId] = asset;//update with new ownership\r\n}\r\n\r\nfunction viewAsset(uint256 assetId) external view returns (Asset memory) {\r\n    return _assets[assetId];\r\n}\r\n\r\nfunction getMoneyTokenBalance(address user) external view returns (uint256) {\r\n    return balanceOf(user, MONEY_TOKEN_ID);\r\n}\r\nfunction getAssetOwner(uint256 assetId) external view returns (address) {\r\n    return _assets[assetId].owner;\r\n}\r\nfunction listAssetForSale(uint256 assetId, uint256 price) external {\r\n    Asset storage asset = _assets[assetId];\r\n    require(msg.sender == asset.owner, \"Only the owner can list the asset for sale.\");\r\n    asset.forSale = true;\r\n    asset.price = price;\r\n}\r\n\r\nfunction removeFromSale(uint256 assetId) external {\r\n    Asset storage asset = _assets[assetId];\r\n    require(msg.sender == asset.owner, \"Only the owner can remove the asset from sale.\");\r\n    asset.forSale = false;\r\n}\r\n\r\nfunction buyMoneyTokens() external payable {\r\n    uint256 etherAmount = msg.value / 10**18;  // Convert wei to ether\r\n    uint256 tokensToBuy = etherAmount * RATE;\r\n    // Update balances\r\n    _mint(msg.sender, MONEY_TOKEN_ID, tokensToBuy, \"\");\r\n}\r\n\r\n\r\n}\r\n",
  "sourcePath": "C:\\Users\\VX322WZ\\OneDrive - EY\\Desktop\\blockchain_poc\\blockchain_BE\\contracts\\Market.sol",
  "compiler": {
    "name": "solc",
    "version": "0.8.21+commit.d9974bed.Emscripten.clang"
  },
  "schemaVersion": "3.4.16",
  "updatedAt": "2023-09-19T11:24:11.022Z",
  "devdoc": {
    "events": {
      "ApprovalForAll(address,address,bool)": {
        "details": "Emitted when `account` grants or revokes permission to `operator` to transfer their tokens, according to `approved`."
      },
      "TransferBatch(address,address,address,uint256[],uint256[])": {
        "details": "Equivalent to multiple {TransferSingle} events, where `operator`, `from` and `to` are the same for all transfers."
      },
      "TransferSingle(address,address,address,uint256,uint256)": {
        "details": "Emitted when `value` tokens of token type `id` are transferred from `from` to `to` by `operator`."
      },
      "URI(string,uint256)": {
        "details": "Emitted when the URI for token type `id` changes to `value`, if it is a non-programmatic URI. If an {URI} event was emitted for `id`, the standard https://eips.ethereum.org/EIPS/eip-1155#metadata-extensions[guarantees] that `value` will equal the value returned by {IERC1155MetadataURI-uri}."
      }
    },
    "kind": "dev",
    "methods": {
      "balanceOf(address,uint256)": {
        "details": "See {IERC1155-balanceOf}. Requirements: - `account` cannot be the zero address."
      },
      "balanceOfBatch(address[],uint256[])": {
        "details": "See {IERC1155-balanceOfBatch}. Requirements: - `accounts` and `ids` must have the same length."
      },
      "isApprovedForAll(address,address)": {
        "details": "See {IERC1155-isApprovedForAll}."
      },
      "safeBatchTransferFrom(address,address,uint256[],uint256[],bytes)": {
        "details": "See {IERC1155-safeBatchTransferFrom}."
      },
      "safeTransferFrom(address,address,uint256,uint256,bytes)": {
        "details": "See {IERC1155-safeTransferFrom}."
      },
      "setApprovalForAll(address,bool)": {
        "details": "See {IERC1155-setApprovalForAll}."
      },
      "supportsInterface(bytes4)": {
        "details": "See {IERC165-supportsInterface}."
      },
      "uri(uint256)": {
        "details": "See {IERC1155MetadataURI-uri}. This implementation returns the same URI for *all* token types. It relies on the token type ID substitution mechanism https://eips.ethereum.org/EIPS/eip-1155#metadata[defined in the EIP]. Clients calling this function must replace the `\\{id\\}` substring with the actual token type ID."
      }
    },
    "version": 1
  },
  "userdoc": {
    "kind": "user",
    "methods": {},
    "version": 1
  }
}